{
  "transactions": [
    {
      "hash": "0xfa2bcfef168208551cc16100c319feabdbead0fa623ab25be084770987e5ad79",
      "transactionType": "CALL",
      "contractName": null,
      "contractAddress": "0x1cb4ee78ce809ebc6ca7460d78aff5f00268e8c6",
      "function": "flip(bool)",
      "arguments": [
        "true"
      ],
      "transaction": {
        "from": "0x8b88a3b92433638324e5f429bee52b1fd84e7c5a",
        "to": "0x1cb4ee78ce809ebc6ca7460d78aff5f00268e8c6",
        "gas": "0xb757",
        "value": "0x0",
        "input": "0x1d263f670000000000000000000000000000000000000000000000000000000000000001",
        "nonce": "0xd",
        "chainId": "0x4268"
      },
      "additionalContracts": [],
      "isFixedGasLimit": false
    }
  ],
  "receipts": [
    {
      "status": "0x1",
      "cumulativeGasUsed": "0xbb0b2",
      "logs": [],
      "logsBloom": "0x00000000000000000000000000000000000000000000000000000000000000000000000000000000000000000000000000000000000000000000000000000000000000000000000000000000000000000000000000000000000000000000000000000000000000000000000000000000000000000000000000000000000000000000000000000000000000000000000000000000000000000000000000000000000000000000000000000000000000000000000000000000000000000000000000000000000000000000000000000000000000000000000000000000000000000000000000000000000000000000000000000000000000000000000000000000",
      "type": "0x2",
      "transactionHash": "0xfa2bcfef168208551cc16100c319feabdbead0fa623ab25be084770987e5ad79",
      "transactionIndex": "0x4",
      "blockHash": "0x2c6564a97db0f66640a0a5a2813e77fa0b0fcc20256fbd3b87da1839e5c10f9b",
      "blockNumber": "0x1f2b17",
      "gasUsed": "0x71b2",
      "effectiveGasPrice": "0x13f57c",
      "from": "0x8b88a3b92433638324e5f429bee52b1fd84e7c5a",
      "to": "0x1cb4ee78ce809ebc6ca7460d78aff5f00268e8c6",
      "contractAddress": null
    }
  ],
  "libraries": [],
  "pending": [],
  "returns": {},
  "timestamp": 1722476153,
  "chain": 17000,
  "commit": "ed86d1d"
}