{
  "transactions": [
    {
      "hash": "0xa8c815087aa19fd67171d9b10065cdaf44478771549ff1e9688d121aacaf5897",
      "transactionType": "CALL",
      "contractName": null,
      "contractAddress": "0x1cb4ee78ce809ebc6ca7460d78aff5f00268e8c6",
      "function": "flip(bool)",
      "arguments": [
        "true"
      ],
      "transaction": {
        "from": "0x8b88a3b92433638324e5f429bee52b1fd84e7c5a",
        "to": "0x1cb4ee78ce809ebc6ca7460d78aff5f00268e8c6",
        "gas": "0x123d1",
        "value": "0x0",
        "input": "0x1d263f670000000000000000000000000000000000000000000000000000000000000001",
        "nonce": "0x2",
        "chainId": "0x4268"
      },
      "additionalContracts": [],
      "isFixedGasLimit": false
    }
  ],
  "receipts": [
    {
      "status": "0x1",
      "cumulativeGasUsed": "0x221664",
      "logs": [],
      "logsBloom": "0x00000000000000000000000000000000000000000000000000000000000000000000000000000000000000000000000000000000000000000000000000000000000000000000000000000000000000000000000000000000000000000000000000000000000000000000000000000000000000000000000000000000000000000000000000000000000000000000000000000000000000000000000000000000000000000000000000000000000000000000000000000000000000000000000000000000000000000000000000000000000000000000000000000000000000000000000000000000000000000000000000000000000000000000000000000000",
      "type": "0x2",
      "transactionHash": "0xa8c815087aa19fd67171d9b10065cdaf44478771549ff1e9688d121aacaf5897",
      "transactionIndex": "0x17",
      "blockHash": "0x0ae1e5c18d9865e819f8545f5a478a93c7ac85dac0dbdb968ffe2bb356740957",
      "blockNumber": "0x1f2ae5",
      "gasUsed": "0xc789",
      "effectiveGasPrice": "0x11a1e",
      "from": "0x8b88a3b92433638324e5f429bee52b1fd84e7c5a",
      "to": "0x1cb4ee78ce809ebc6ca7460d78aff5f00268e8c6",
      "contractAddress": null
    }
  ],
  "libraries": [],
  "pending": [],
  "returns": {},
  "timestamp": 1722475496,
  "chain": 17000,
  "commit": "ed86d1d"
}