{
  "transactions": [
    {
      "hash": "0x04532a533d6edcd27aba545108abb3576f4bd758ecff4ab54a5c1bcf10e6f0a4",
      "transactionType": "CALL",
      "contractName": null,
      "contractAddress": "0x1cb4ee78ce809ebc6ca7460d78aff5f00268e8c6",
      "function": "flip(bool)",
      "arguments": [
        "true"
      ],
      "transaction": {
        "from": "0x8b88a3b92433638324e5f429bee52b1fd84e7c5a",
        "to": "0x1cb4ee78ce809ebc6ca7460d78aff5f00268e8c6",
        "gas": "0xb757",
        "value": "0x0",
        "input": "0x1d263f670000000000000000000000000000000000000000000000000000000000000001",
        "nonce": "0xa",
        "chainId": "0x4268"
      },
      "additionalContracts": [],
      "isFixedGasLimit": false
    }
  ],
  "receipts": [
    {
      "status": "0x1",
      "cumulativeGasUsed": "0x128cce",
      "logs": [],
      "logsBloom": "0x00000000000000000000000000000000000000000000000000000000000000000000000000000000000000000000000000000000000000000000000000000000000000000000000000000000000000000000000000000000000000000000000000000000000000000000000000000000000000000000000000000000000000000000000000000000000000000000000000000000000000000000000000000000000000000000000000000000000000000000000000000000000000000000000000000000000000000000000000000000000000000000000000000000000000000000000000000000000000000000000000000000000000000000000000000000",
      "type": "0x2",
      "transactionHash": "0x04532a533d6edcd27aba545108abb3576f4bd758ecff4ab54a5c1bcf10e6f0a4",
      "transactionIndex": "0x8",
      "blockHash": "0x9ae8d52323e7caf4f24af225a0142e1305ff2b2f883d71120fa6b49bdc0fc21a",
      "blockNumber": "0x1f2b0c",
      "gasUsed": "0x84bd",
      "effectiveGasPrice": "0x51e5301",
      "from": "0x8b88a3b92433638324e5f429bee52b1fd84e7c5a",
      "to": "0x1cb4ee78ce809ebc6ca7460d78aff5f00268e8c6",
      "contractAddress": null
    }
  ],
  "libraries": [],
  "pending": [],
  "returns": {},
  "timestamp": 1722476027,
  "chain": 17000,
  "commit": "ed86d1d"
}