{
  "transactions": [
    {
      "hash": "0x0d42992a1c44820cb610a532f9ce5e3751a3eb7723eb76c40ee004135db77875",
      "transactionType": "CALL",
      "contractName": null,
      "contractAddress": "0x1cb4ee78ce809ebc6ca7460d78aff5f00268e8c6",
      "function": "flip(bool)",
      "arguments": [
        "false"
      ],
      "transaction": {
        "from": "0x8b88a3b92433638324e5f429bee52b1fd84e7c5a",
        "to": "0x1cb4ee78ce809ebc6ca7460d78aff5f00268e8c6",
        "gas": "0xa7b5",
        "value": "0x0",
        "input": "0x1d263f670000000000000000000000000000000000000000000000000000000000000000",
        "nonce": "0x8",
        "chainId": "0x4268"
      },
      "additionalContracts": [],
      "isFixedGasLimit": false
    }
  ],
  "receipts": [
    {
      "status": "0x1",
      "cumulativeGasUsed": "0x482cf5",
      "logs": [],
      "logsBloom": "0x00000000000000000000000000000000000000000000000000000000000000000000000000000000000000000000000000000000000000000000000000000000000000000000000000000000000000000000000000000000000000000000000000000000000000000000000000000000000000000000000000000000000000000000000000000000000000000000000000000000000000000000000000000000000000000000000000000000000000000000000000000000000000000000000000000000000000000000000000000000000000000000000000000000000000000000000000000000000000000000000000000000000000000000000000000000",
      "type": "0x2",
      "transactionHash": "0x0d42992a1c44820cb610a532f9ce5e3751a3eb7723eb76c40ee004135db77875",
      "transactionIndex": "0x7",
      "blockHash": "0x9b765e0efc1e471316ec8ed2db8336bee1e226a83745c567538ed0bd15a57098",
      "blockNumber": "0x1f2b06",
      "gasUsed": "0x796c",
      "effectiveGasPrice": "0x546d988",
      "from": "0x8b88a3b92433638324e5f429bee52b1fd84e7c5a",
      "to": "0x1cb4ee78ce809ebc6ca7460d78aff5f00268e8c6",
      "contractAddress": null
    }
  ],
  "libraries": [],
  "pending": [],
  "returns": {},
  "timestamp": 1722475957,
  "chain": 17000,
  "commit": "ed86d1d"
}