{
  "transactions": [
    {
      "hash": "0x1082a65c018e9ef3e5ea8ef029ca91dbb79313c321ef8c260d412954cc5e05df",
      "transactionType": "CALL",
      "contractName": null,
      "contractAddress": "0x35573be6705ea2ca56cc99c29a46804e1dc56d74",
      "function": "flip(bool)",
      "arguments": [
        "false"
      ],
      "transaction": {
        "from": "0x8b88a3b92433638324e5f429bee52b1fd84e7c5a",
        "to": "0x35573be6705ea2ca56cc99c29a46804e1dc56d74",
        "gas": "0x11398",
        "value": "0x0",
        "input": "0x1d263f670000000000000000000000000000000000000000000000000000000000000000",
        "nonce": "0x5e",
        "chainId": "0xaa36a7"
      },
      "additionalContracts": [],
      "isFixedGasLimit": false
    }
  ],
  "receipts": [
    {
      "status": "0x1",
      "cumulativeGasUsed": "0xb7ad43",
      "logs": [],
      "logsBloom": "0x00000000000000000000000000000000000000000000000000000000000000000000000000000000000000000000000000000000000000000000000000000000000000000000000000000000000000000000000000000000000000000000000000000000000000000000000000000000000000000000000000000000000000000000000000000000000000000000000000000000000000000000000000000000000000000000000000000000000000000000000000000000000000000000000000000000000000000000000000000000000000000000000000000000000000000000000000000000000000000000000000000000000000000000000000000000",
      "type": "0x2",
      "transactionHash": "0x1082a65c018e9ef3e5ea8ef029ca91dbb79313c321ef8c260d412954cc5e05df",
      "transactionIndex": "0x52",
      "blockHash": "0xe1193ef5d9be48c13b5d3f91bcfb5ab8e6ad24e1ceb15ec5bf32a105ef6f655c",
      "blockNumber": "0x61c5d2",
      "gasUsed": "0x796c",
      "effectiveGasPrice": "0x519468d7",
      "from": "0x8b88a3b92433638324e5f429bee52b1fd84e7c5a",
      "to": "0x35573be6705ea2ca56cc99c29a46804e1dc56d74",
      "contractAddress": null
    }
  ],
  "libraries": [],
  "pending": [],
  "returns": {},
  "timestamp": 1722397612,
  "chain": 11155111,
  "commit": "ed86d1d"
}