{
  "transactions": [
    {
      "hash": "0x5a085f5fed1d3fa85b9759a8d1580abefa30932ad67399e8f87bb3fd12653c02",
      "transactionType": "CALL",
      "contractName": null,
      "contractAddress": "0x35573be6705ea2ca56cc99c29a46804e1dc56d74",
      "function": "flip(bool)",
      "arguments": [
        "true"
      ],
      "transaction": {
        "from": "0x8b88a3b92433638324e5f429bee52b1fd84e7c5a",
        "to": "0x35573be6705ea2ca56cc99c29a46804e1dc56d74",
        "gas": "0xb757",
        "value": "0x0",
        "input": "0x1d263f670000000000000000000000000000000000000000000000000000000000000001",
        "nonce": "0x94",
        "chainId": "0xaa36a7"
      },
      "additionalContracts": [],
      "isFixedGasLimit": false
    }
  ],
  "receipts": [
    {
      "status": "0x1",
      "cumulativeGasUsed": "0xb42aea",
      "logs": [],
      "logsBloom": "0x00000000000000000000000000000000000000000000000000000000000000000000000000000000000000000000000000000000000000000000000000000000000000000000000000000000000000000000000000000000000000000000000000000000000000000000000000000000000000000000000000000000000000000000000000000000000000000000000000000000000000000000000000000000000000000000000000000000000000000000000000000000000000000000000000000000000000000000000000000000000000000000000000000000000000000000000000000000000000000000000000000000000000000000000000000000",
      "type": "0x2",
      "transactionHash": "0x5a085f5fed1d3fa85b9759a8d1580abefa30932ad67399e8f87bb3fd12653c02",
      "transactionIndex": "0x43",
      "blockHash": "0x4af79d74cbd8545a7db0264ac8daf6347eab672f8000a6dddce13af84a5affae",
      "blockNumber": "0x61c723",
      "gasUsed": "0x71b2",
      "effectiveGasPrice": "0x181804f1",
      "from": "0x8b88a3b92433638324e5f429bee52b1fd84e7c5a",
      "to": "0x35573be6705ea2ca56cc99c29a46804e1dc56d74",
      "contractAddress": null
    }
  ],
  "libraries": [],
  "pending": [],
  "returns": {},
  "timestamp": 1722402160,
  "chain": 11155111,
  "commit": "ed86d1d"
}