{
  "transactions": [
    {
      "hash": "0x92f006425ef1d6653fd61ec2a3bc666c540f8632294803b147b0db14e2f6ce53",
      "transactionType": "CALL",
      "contractName": null,
      "contractAddress": "0x35573be6705ea2ca56cc99c29a46804e1dc56d74",
      "function": "flip(bool)",
      "arguments": [
        "false"
      ],
      "transaction": {
        "from": "0x8b88a3b92433638324e5f429bee52b1fd84e7c5a",
        "to": "0x35573be6705ea2ca56cc99c29a46804e1dc56d74",
        "gas": "0x11398",
        "value": "0x0",
        "input": "0x1d263f670000000000000000000000000000000000000000000000000000000000000000",
        "nonce": "0x97",
        "chainId": "0xaa36a7"
      },
      "additionalContracts": [],
      "isFixedGasLimit": false
    }
  ],
  "receipts": [
    {
      "status": "0x1",
      "cumulativeGasUsed": "0x139ad70",
      "logs": [],
      "logsBloom": "0x00000000000000000000000000000000000000000000000000000000000000000000000000000000000000000000000000000000000000000000000000000000000000000000000000000000000000000000000000000000000000000000000000000000000000000000000000000000000000000000000000000000000000000000000000000000000000000000000000000000000000000000000000000000000000000000000000000000000000000000000000000000000000000000000000000000000000000000000000000000000000000000000000000000000000000000000000000000000000000000000000000000000000000000000000000000",
      "type": "0x2",
      "transactionHash": "0x92f006425ef1d6653fd61ec2a3bc666c540f8632294803b147b0db14e2f6ce53",
      "transactionIndex": "0x68",
      "blockHash": "0x62fb9f4e29d71993e2f32a3aaf6d7e80da80297ff5a7ddce87d1f366071ed7b5",
      "blockNumber": "0x61c72c",
      "gasUsed": "0xc787",
      "effectiveGasPrice": "0x1d026414",
      "from": "0x8b88a3b92433638324e5f429bee52b1fd84e7c5a",
      "to": "0x35573be6705ea2ca56cc99c29a46804e1dc56d74",
      "contractAddress": null
    }
  ],
  "libraries": [],
  "pending": [],
  "returns": {},
  "timestamp": 1722402277,
  "chain": 11155111,
  "commit": "ed86d1d"
}