{
  "transactions": [
    {
      "hash": "0x2a04033f4b228948d3cdcc18d86a006514604e021b5172800c24290a46b33391",
      "transactionType": "CALL",
      "contractName": null,
      "contractAddress": "0x35573be6705ea2ca56cc99c29a46804e1dc56d74",
      "function": "flip(bool)",
      "arguments": [
        "true"
      ],
      "transaction": {
        "from": "0x8b88a3b92433638324e5f429bee52b1fd84e7c5a",
        "to": "0x35573be6705ea2ca56cc99c29a46804e1dc56d74",
        "gas": "0xb757",
        "value": "0x0",
        "input": "0x1d263f670000000000000000000000000000000000000000000000000000000000000001",
        "nonce": "0x69",
        "chainId": "0xaa36a7"
      },
      "additionalContracts": [],
      "isFixedGasLimit": false
    }
  ],
  "receipts": [
    {
      "status": "0x1",
      "cumulativeGasUsed": "0xa24ac2",
      "logs": [],
      "logsBloom": "0x00000000000000000000000000000000000000000000000000000000000000000000000000000000000000000000000000000000000000000000000000000000000000000000000000000000000000000000000000000000000000000000000000000000000000000000000000000000000000000000000000000000000000000000000000000000000000000000000000000000000000000000000000000000000000000000000000000000000000000000000000000000000000000000000000000000000000000000000000000000000000000000000000000000000000000000000000000000000000000000000000000000000000000000000000000000",
      "type": "0x2",
      "transactionHash": "0x2a04033f4b228948d3cdcc18d86a006514604e021b5172800c24290a46b33391",
      "transactionIndex": "0x3b",
      "blockHash": "0xd7e708c65fa8e42ff09486c6ec3772202af045adc5a04e6e34d6d9fd2e745510",
      "blockNumber": "0x61c636",
      "gasUsed": "0x71b2",
      "effectiveGasPrice": "0x302cc716",
      "from": "0x8b88a3b92433638324e5f429bee52b1fd84e7c5a",
      "to": "0x35573be6705ea2ca56cc99c29a46804e1dc56d74",
      "contractAddress": null
    }
  ],
  "libraries": [],
  "pending": [],
  "returns": {},
  "timestamp": 1722398941,
  "chain": 11155111,
  "commit": "ed86d1d"
}