{
  "transactions": [
    {
      "hash": "0xd8d3138e2a9e7711e0940df99e9e6dd06314c32aa54890195f2112dd4e7dc961",
      "transactionType": "CALL",
      "contractName": null,
      "contractAddress": "0x35573be6705ea2ca56cc99c29a46804e1dc56d74",
      "function": "flip(bool)",
      "arguments": [
        "false"
      ],
      "transaction": {
        "from": "0x8b88a3b92433638324e5f429bee52b1fd84e7c5a",
        "to": "0x35573be6705ea2ca56cc99c29a46804e1dc56d74",
        "gas": "0xc21d",
        "value": "0x0",
        "input": "0x1d263f670000000000000000000000000000000000000000000000000000000000000000",
        "nonce": "0x89",
        "chainId": "0xaa36a7"
      },
      "additionalContracts": [],
      "isFixedGasLimit": false
    }
  ],
  "receipts": [
    {
      "status": "0x1",
      "cumulativeGasUsed": "0xd0a618",
      "logs": [],
      "logsBloom": "0x00000000000000000000000000000000000000000000000000000000000000000000000000000000000000000000000000000000000000000000000000000000000000000000000000000000000000000000000000000000000000000000000000000000000000000000000000000000000000000000000000000000000000000000000000000000000000000000000000000000000000000000000000000000000000000000000000000000000000000000000000000000000000000000000000000000000000000000000000000000000000000000000000000000000000000000000000000000000000000000000000000000000000000000000000000000",
      "type": "0x2",
      "transactionHash": "0xd8d3138e2a9e7711e0940df99e9e6dd06314c32aa54890195f2112dd4e7dc961",
      "transactionIndex": "0x52",
      "blockHash": "0xb6d64a8d2e7c06e8f1665c58ae38a7c3f616e0f45917b9cd47f1754543593c46",
      "blockNumber": "0x61c6e5",
      "gasUsed": "0x719c",
      "effectiveGasPrice": "0x2316e9d7",
      "from": "0x8b88a3b92433638324e5f429bee52b1fd84e7c5a",
      "to": "0x35573be6705ea2ca56cc99c29a46804e1dc56d74",
      "contractAddress": null
    }
  ],
  "libraries": [],
  "pending": [],
  "returns": {},
  "timestamp": 1722401342,
  "chain": 11155111,
  "commit": "ed86d1d"
}