{
  "transactions": [
    {
      "hash": "0xbf82881f581410e36cbbaa22ddcebb1f03bfbbe4db87b1b2627ccf0c6e676131",
      "transactionType": "CALL",
      "contractName": null,
      "contractAddress": "0x35573be6705ea2ca56cc99c29a46804e1dc56d74",
      "function": "flip(bool)",
      "arguments": [
        "false"
      ],
      "transaction": {
        "from": "0x8b88a3b92433638324e5f429bee52b1fd84e7c5a",
        "to": "0x35573be6705ea2ca56cc99c29a46804e1dc56d74",
        "gas": "0x11398",
        "value": "0x0",
        "input": "0x1d263f670000000000000000000000000000000000000000000000000000000000000000",
        "nonce": "0x80",
        "chainId": "0xaa36a7"
      },
      "additionalContracts": [],
      "isFixedGasLimit": false
    }
  ],
  "receipts": [
    {
      "status": "0x1",
      "cumulativeGasUsed": "0x5305f4",
      "logs": [],
      "logsBloom": "0x00000000000000000000000000000000000000000000000000000000000000000000000000000000000000000000000000000000000000000000000000000000000000000000000000000000000000000000000000000000000000000000000000000000000000000000000000000000000000000000000000000000000000000000000000000000000000000000000000000000000000000000000000000000000000000000000000000000000000000000000000000000000000000000000000000000000000000000000000000000000000000000000000000000000000000000000000000000000000000000000000000000000000000000000000000000",
      "type": "0x2",
      "transactionHash": "0xbf82881f581410e36cbbaa22ddcebb1f03bfbbe4db87b1b2627ccf0c6e676131",
      "transactionIndex": "0x20",
      "blockHash": "0x29792b3eb384c72883ee11c4a1a78a42ae0b743107864858b791e539e7b2a90e",
      "blockNumber": "0x61c6b2",
      "gasUsed": "0x796c",
      "effectiveGasPrice": "0x4de2fa63",
      "from": "0x8b88a3b92433638324e5f429bee52b1fd84e7c5a",
      "to": "0x35573be6705ea2ca56cc99c29a46804e1dc56d74",
      "contractAddress": null
    }
  ],
  "libraries": [],
  "pending": [],
  "returns": {},
  "timestamp": 1722400634,
  "chain": 11155111,
  "commit": "ed86d1d"
}